E131VIVIANE ALVES DE CRISTO                                     20160818000000   0140570160927996897499 19801224                                                            MG1               3333318680  0AV                  NACOES UNIDAS                                                                                                                               505  AP202               BOM JARDIM                    MANHUACU                                MG36900000                                                                                                                                                                100                                                                                            MG                                                                                                                                                                                                                                                                                                   013120070316163929000000        20070316163929A121-3 333331868008016
E131DAMIAO ALVES RIBEIRO                                        20170417000000   3580684248784988955539 19621013                                                            RN1               8436636413  0RUA                 DOS IMIGRANTES                                                                                                                              157                      PAJUCARA                      DOS IMIGRANTES                          RN59132690RUA                 DOS IMIGRANTES                                                                                                                              157                      PAJUCARA                      DOS IMIGRANTES                          RN59132690                                                                                                                                                                                                                                                                                           013120071004203148000000        20071004203148A121-3 843663641304017
E131ANDERSON DE OLIVEIRA AMORIM                                 20170926000000   3565966785681995679317 19861110                                                            PE1               8738581602  0RUA                 ANTONIO SIQUEIRA                                                                                                                            118                      CENTRO                        ANTONIO SIQUEIRA                        PE55280000RUA                 ANTONIO SIQUEIRA                                                                                                                            118                      CENTRO                        ANTONIO SIQUEIRA                        PE55280000                                                                                                                                                                                                                                                                                           013120080702132352000000        20080702132352A121-3 873858160209017
E131MARIA DA CONCEICAO MARTINS DE MELO                          20170420000000   0260287547311111111111119761014                                                            PE1               8134795112  0RUA                 CAP BARROSO PEREIRA                                                                                                                         218                      SETUBAL                       CAP BARROSO PEREIRA                     PE51130260RUA                 CAP BARROSO PEREIRA                                                                                                                         218                      SETUBAL                       CAP BARROSO PEREIRA                     PE51130260                                                                                                                                                                                                                                                                                           0131201212040826192013030400000020121204082619A121-3 813479511204017
E131EDSON MORAIS FERREIRA                                       20170926000000   0097705624496992003617 19871027                                                            AP1               9632511278  0AV                  FRANCISCO ALVES CORREA                                                                                                                      0    CA1829              NOVO HORIZONTE                FRANCISCO ALVES CORREA                  AP68909021AV                  FRANCISCO ALVES CORREA                                                                                                                      0    CA1829              NOVO HORIZONTE                FRANCISCO ALVES CORREA                  AP68909021                                                                                                                                                                                                                                                                                           0131200904011634512009070200000020090401163451A121-3 963251127809017
I131WELLINGTON ARAUJO DINIZ JUNIOR                              20170922000000   0454307233298992451933 19930827                                                            MA1               9832394196  0                                                                                                                                                                26   QU16                                                                                      MA                                                                                                                                                                        26   QU16                                                                                      MA                                                                                                                                                                                                                                                                                                   0131                                          A121-3 983239419609017
E131CARLOS ALBERTO HENRIQUE DA SILVA                            20170926000000   6098736332885988710920 19720404                                                            CE1               8532927757  0AV                  GEN OSORIO DE PAIVA                                                                                                                         1431 BL06   AP203        PARANGABA                     FORTALEZA                               CE60720000AV                  GEN OSORIO DE PAIVA                                                                                                                         1431 BL06   AP203        PARANGABA                     GEN OSORIO DE PAIVA                     CE60720000                                                                                                                                                                                                                                                                                           0131              20150603000000              A121-3 853292775709017
E131RENATA KELLY DANTAS CASCAES                                 20170926000000   9804051028791988038430 19900331                                                            PA1               9132483002  0                                                                                                                                                                4400 BL19   AP203                                                                              PA                                                                                                                                                                        4400 BL19   AP203                                                                              PA                                                                                                                                                                                                                                                                                                   013120061031185210000000        20061031185210A121-3 913248300209017
E131SAARAJANE COELHO DA SILVA                                   20170926000000   0567198839099981785097 19951107                                                            MA1               9935413259  0RUA                 RITINHA PEREIRA                                                                                                                             100                      CENTRO                        RITINHA PEREIRA                         MA65800000RUA                 RITINHA PEREIRA                                                                                                                             100                      CENTRO                        RITINHA PEREIRA                         MA65800000                                                                                                                                                                                                                                                                                           0131201106271928532011092800000020110627192853A121-3 993541325909017
E131JOSE ANTONIO CIRENE VALE                                    20170926000000   1378541936898989112530 19520707                                                            MA1               9832241280  0                                                                                                                                                                133                                                                                            MA                                                                                                                                                                        133                                                                                            MA                                                                                                                                                                                                                                                                                                   0131              20160601000000              A121-3 983224128009017
E131GUILHERME CESAR MATOS                                       20170926000000   0193018721194992646274 19940917                                                            PA1               9433467175  0                                                                                                                                                                0    CA616                                                                                     PA                                                                                                                                                                        0    CA616                                                                                     PA                                                                                                                                                                                                                                                                                                   013120061017110233000000        20061017110233A121-3 943346717509017
I131SILVIA CRISTINA RIBEIRO DOS SANTOS                          20170920000000   6149451836885986289076 19771119                                                            CE1               8532832288  0RUA                 STA ROSA                                                                                                                                    55                       CARLITO PAMPLONA              STA ROSA                                CE60311420RUA                 STA ROSA                                                                                                                                    55                       CARLITO PAMPLONA              STA ROSA                                CE60311420                                                                                                                                                                                                                                                                                           0131                                          A121-3 853283228809017
E131ANDREA ROSA DE FREITAS                                      20170926000000   6333423211599981260150 19740516                                                            MA1               9935237942  0                                                                                                                                                                10                                                                                             MA                                                                                                                                                                        10                                                                                             MA                                                                                                                                                                                                                                                                                                   013120060526141140000000        20060526141140A121-3 993523794209017
E131JUDITH MARIA PESTANA GARCES                                 20170926000000   2695757433498988888888 19400910                                                            MA1               9832241817  0RUA                 BOM JESUS                                                                                                                                   643                      CRUZEIRO                      BOM JESUS                               MA65110000RUA                 BOM JESUS                                                                                                                                   643                      CRUZEIRO                      BOM JESUS                               MA65110000                                                                                                                                                                                                                                                                                           0131              20170220000000              A121-3 983224181709017
E131TELEMAR NORTE LESTE SA EM RECUPERACAO JUDICIAL              20170926000000330001180015748532669951  0                 061062057                                         CE1               8532891740  0AV                  DES MOREIRA                                                                                                                                 2430                     DIONISIO TORRES               FORTALEZA                               CE60170002AV                  ALBERTO CRAVEIRO                                                                                                                            2901                     BOA VISTA                     ALBERTO CRAVEIRO                        CE60861211                                                                                                                                                                                                                                                                                           0131              20170316000000              A121-3 853289174009017
E131FABIO MARTINS CARVALHO                                      20170926000000   0161326129291989400023 19910408                                                            PA1               9132552311  0                                                                                                                                                                137                                                                                            PA                                                                                                                                                                        137                                                                                            PA                                                                                                                                                                                                                                                                                                   0131201307050817032013100400000020130705081703A121-3 913255231109017
E131RUBENS COUTINHO RIBEIRO                                     20170926000000   0111985137886994209798 19850504                                                            PI1               8633172956  0TV                  VINTE E DOIS LOT N B VISTA                                                                                                                  81                       BELA VISTA-TIMON              VINTE E DOIS LOT N B VISTA              PI64031410TV                  VINTE E DOIS LOT N B VISTA                                                                                                                  81                       BELA VISTA-TIMON              VINTE E DOIS LOT N B VISTA              PI64031410                                                                                                                                                                                                                                                                                           0131              20160318000000              A121-3 863317295609017
E131JOAO DA CRUZ DOS SANTOS                                     20170926000000   3738964533498988252429 19631114                                                            MA1               9832268166  0RUA                 S BENEDITO                                                                                                                                  7    QU39                CRUZEIRO ANIL                 S BENEDITO                              MA65063740RUA                 S BENEDITO                                                                                                                                  7    QU39                CRUZEIRO ANIL                 S BENEDITO                              MA65063740                                                                                                                                                                                                                                                                                           013120091221162455000000        20091221162455A121-3 983226816609017
E131SAVIO DE MESQUITA NUNES                                     20170926000000   0757096530286988065970 19980821                                                            PI1               8632318006  0RUA                 TUFY SALOMAO                                                                                                                                12   QU166               ITARARE                       TUFY SALOMAO                            PI64078261RUA                 TUFY SALOMAO                                                                                                                                12   QU166               ITARARE                       TUFY SALOMAO                            PI64078261                                                                                                                                                                                                                                                                                           0131200808121516132010091700000020080812151613A121-3 863231800609017
E131RENATO DE ARAUJO SOARES                                     20170926000000   7051175041281985988690 19881024                                                            PE1               8132512856  0RUA                 JOSE TAVARES DE HOLANDA                                                                                                                     118                      CURADO                        JOSE TAVARES DE HOLANDA                 PE50910340RUA                 JOSE TAVARES DE HOLANDA                                                                                                                     118                      CURADO                        JOSE TAVARES DE HOLANDA                 PE50910340                                                                                                                                                                                                                                                                                           0131201410061504452014111900000020141006150445A121-3 813251285609017
E131ELISABETE OLIVEIRA DA SILVA                                 20170926000000   026884483668585665004  19780917                                                            CE1               8532916708  0RUA                 22 CJ PREFEITO JOSE WALTER                                                                                                                  41                       PREF JOSE WALTER              22 CJ PREFEITO JOSE WALTER              CE60750360RUA                 22 CJ PREFEITO JOSE WALTER                                                                                                                  41                       PREF JOSE WALTER              22 CJ PREFEITO JOSE WALTER              CE60750360                                                                                                                                                                                                                                                                                           013120100209154633000000        20100209154633A121-3 853291670809017
E131ALICE FERREIRA SOUZA NETA                                   20170926000000   7173226821594992404102 19811227                                                            PA1               9433224323  0QD                  TRINTA E QUATRO FL 7                                                                                                                        2                        NOVA MARABA                   MARABA                                  PA68512366QD                  TRINTA E QUATRO FL 7                                                                                                                        2                        NOVA MARABA                   TRINTA E QUATRO FL 7                    PA68512366                                                                                                                                                                                                                                                                                           0131201006211152462010092100000020100621115246A121-3 943322432309017
E131ELDA MORAES DA SILVA                                        20170926000000   4486186923496991089399 19730106                                                            AP1               9632243748  0                                                                                                                                                                23   QU08   BL23   AP101                               MACAPA                                  AP                                                                                                                                                                        23   QU08   BL23   AP101                                                                       AP                                                                                                                                                                                                                                                                                                   0131201210301337452013012900000020121030133745A121-3 963224374809017
E131MARCIO LUIZ PEDROSO DE OLIVEIRA JUNIOR                      20170926000000   0401258734099981263122 19890923                                                            MA1               9936215733  0RUA                 VP VINTE E NOVE                                                                                                                             0                        COHAB III                     VP VINTE E NOVE                         MA65700000RUA                 VP VINTE E NOVE                                                                                                                             0                        COHAB III                     VP VINTE E NOVE                         MA65700000                                                                                                                                                                                                                                                                                           0131201503240911342015032400000020150324091134A121-3 993621573309017
E131MARIA LUCILENE DA ROCHA                                     20170925000000   847111913728585232697  19761223                                                            CE1               8533823374  0RUA                 STA LUZIA                                                                                                                                   166  BL20   AP201        CIDADE NOVA                   STA LUZIA                               CE61930260RUA                 STA LUZIA                                                                                                                                   166  BL20   AP201        CIDADE NOVA                   STA LUZIA                               CE61930260                                                                                                                                                                                                                                                                                           013120080109083410000000        20080109083410A121-3 853382337409017
E131MARIA DO AMPARO VIEIRA DE MATOS                             20170926000000   0409476633286988825720 19830518                                                            PI1               8632117888  0                                                                                                                                                                8371                                                                                           PI                                                                                                                                                                        8371                                                                                           PI                                                                                                                                                                                                                                                                                                   0131200607250856162011011400000020060725085616A121-3 863211788809017
E131MARLENE C BARON TRANSPORTES ME                              201709260000002615517900014081981793084 0                 ISENTO                                            PE1               8135361112  0ROD                 BR DUZENTOS E TRINTA E DOIS                                                                                                                 0    KM58,5              CENTRO                        BR DUZENTOS E TRINTA E DOIS             PE55630000ROD                 BR DUZENTOS E TRINTA E DOIS                                                                                                                 0    KM58,5              CENTRO                        BR DUZENTOS E TRINTA E DOIS             PE55630000                                                                                                                                                                                                                                                                                           0131201206281339192012092800000020120628133919A121-3 813536111209017
E131DENISE DE ALMEIDA VERAS                                     20170926000000   6094124430098991502691 19951027                                                            MA1               9832466393  0LOT                 PORTO DOS COQUEIRAIS                                                                                                                        0                        SAO JOAQUIM                   PORTO DOS COQUEIRAIS                    MA65058340LOT                 PORTO DOS COQUEIRAIS                                                                                                                        0                        SAO JOAQUIM                   PORTO DOS COQUEIRAIS                    MA65058340                                                                                                                                                                                                                                                                                           013120080827150251000000        20080827150251A121-3 983246639309017
E131CARLOS ANDRE LOPES TRINDADE                                 20170926000000   5526511120491993711560 19981007                                                            PA1               9132785697  0VL                  AUXILIADORA                                                                                                                                 600                      JURUNAS                       AUXILIADORA                             PA66030055VL                  AUXILIADORA                                                                                                                                 600                      JURUNAS                       AUXILIADORA                             PA66030055                                                                                                                                                                                                                                                                                           013120080616160115000000        20080616160115A121-3 913278569709017
E131CABO DE SANTO AGOSTINHO INCORPORACOES E INVESTIMENTOS       20170926000000187384320001608138778300  0                 ISENTO                                            PE1               8135182178  0                                                                                                                                                                217  SL7                                                                                       PE                                                                                                                                                                        217  SL7                                                                                       PE                                                                                                                                                                                                                                                                                                   013120070307141002000000        20070307141002A121-3 813518217809017
E131GRACILEIDE MORAIS FEITOSA                                   20170926000000   0139336931694988049744 19730327                                                            PA1               9433231990  0RUA                 MAGALHAES BARATA                                                                                                                            1427                     CIDADE PIONEIRA               MAGALHAES BARATA                        PA68500310RUA                 MAGALHAES BARATA                                                                                                                            1427                     CIDADE PIONEIRA               MAGALHAES BARATA                        PA68500310                                                                                                                                                                                                                                                                                           013120060714114124000000        20060714114124A121-3 943323199009017
E131SHIRLIANE PIRES DA SILVA                                    20170926000000   620280593548587752805  19990721                                                            CE1               8532692908  0RUA                 DOZE DE OUTUBRO                                                                                                                             1001                     CJ S FCO ASSIS JANGU          DOZE DE OUTUBRO                         CE60863725RUA                 DOZE DE OUTUBRO                                                                                                                             1001                     CJ S FCO ASSIS JANGU          DOZE DE OUTUBRO                         CE60863725                                                                                                                                                                                                                                                                                           0131201308221313442013112000000020130822131344A121-3 853269290809017
E131MARIA IVONIA DOS SANTOS                                     20170926000000   266510093208588965438  19650720                                                            CE1               8533822258  0RUA                 STA LUZIA                                                                                                                                   167  BL9    AP103        CIDADE NOVA                   STA LUZIA                               CE61930260RUA                 STA LUZIA                                                                                                                                   167  BL9    AP103        CIDADE NOVA                   STA LUZIA                               CE61930260                                                                                                                                                                                                                                                                                           0131201106291428012011092800000020110629142801A121-3 853382225809017
E131ANTONIA JERSANA MACHADO DA CONCEICAO                        20170926000000   0236158430198982001271 19860227                                                            MA1               9836537325  0RUA                 NOVA BRASILIA                                                                                                                               388                      PALMEIRA                      NOVA BRASILIA                           MA65300000RUA                 NOVA BRASILIA                                                                                                                               388                      PALMEIRA                      NOVA BRASILIA                           MA65300000                                                                                                                                                                                                                                                                                           0131              20170220000000              A121-3 983653732509017
E131SUPERMERCADO COMETA LTDA                                    20170926000000068876680007748533046565  0                 ISENTO                                            CE1               8532286434  0RUA                 PEDRO SAMPAIO                                                                                                                               778                      VILA VELHA                    PEDRO SAMPAIO                           CE60345600RUA                 PEDRO SAMPAIO                                                                                                                               778                      VILA VELHA                    PEDRO SAMPAIO                           CE60345600                                                                                                                                                                                                                                                                                           0131201601201336492016050500000020160120133649A121-3 853228643409017
